{
  "contractName": "Example",
  "abi": [
    {
      "inputs": [],
      "payable": false,
      "stateMutability": "nonpayable",
      "type": "constructor"
    },
    {
      "constant": false,
      "inputs": [],
      "name": "ExampleFunction",
      "outputs": [],
      "payable": false,
      "stateMutability": "nonpayable",
      "type": "function"
    }
  ],
  "bytecode": "0x60606040523415600e57600080fd5b60848061001c6000396000f300606060405260043610603f576000357c0100000000000000000000000000000000000000000000000000000000900463ffffffff168063b818dacd146044575b600080fd5b3415604e57600080fd5b60546056565b005b5600a165627a7a72305820bebcbbdf06550591bc772dfcb0eadc842f95953869feb7a9528bac91487d95240029",
  "source": "pragma solidity ^0.4.17;\r\n\r\ncontract Example {\r\n  function Example() {\r\n    // constructor\r\n  }\r\n\r\n  function ExampleFunction() {\r\n    // example function\r\n  }\r\n}",
  "sourcePath": "C:\\workspace\\current_workspace\\web3java\\dev_truffle\\contracts\\Example.sol",
  "compiler": {
    "name": "solc",
    "version": "0.4.21+commit.dfe3193c.Emscripten.clang"
  },
  "schemaVersion": "2.0.0",
  "updatedAt": "2018-04-14T03:37:39.710Z"
}